{
  "contractName": "PortfolioFactory",
  "abi": [
    {
      "anonymous": false,
      "inputs": [
        {
          "indexed": false,
          "name": "deployedAt",
          "type": "address"
        },
        {
          "indexed": false,
          "name": "platform",
          "type": "address"
        },
        {
          "indexed": false,
          "name": "members",
          "type": "address[]"
        }
      ],
      "name": "NewContract",
      "type": "event",
      "signature": "0x6e877a7ce643045677bd27a5c0de6e57f288261519675ab8f4a28cda252aa794"
    },
    {
      "constant": false,
      "inputs": [
        {
          "name": "_platform",
          "type": "address"
        },
        {
          "name": "_members",
          "type": "address[]"
        }
      ],
      "name": "createPortfolio",
      "outputs": [],
      "payable": true,
      "stateMutability": "payable",
      "type": "function",
      "signature": "0x0ce89652"
    }
  ],
  "bytecode": "0x608060405234801561001057600080fd5b50611d8b806100206000396000f3fe608060405260043610610041576000357c0100000000000000000000000000000000000000000000000000000000900463ffffffff1680630ce8965214610046575b600080fd5b61011c6004803603604081101561005c57600080fd5b81019080803573ffffffffffffffffffffffffffffffffffffffff1690602001909291908035906020019064010000000081111561009957600080fd5b8201836020820111156100ab57600080fd5b803590602001918460208302840111640100000000831117156100cd57600080fd5b919080806020026020016040519081016040528093929190818152602001838360200280828437600081840152601f19601f82011690508083019250505050505050919291929050505061011e565b005b6000828261012a6102ac565b808373ffffffffffffffffffffffffffffffffffffffff1673ffffffffffffffffffffffffffffffffffffffff16815260200180602001828103825283818151815260200191508051906020019060200280838360005b8381101561019c578082015181840152602081019050610181565b505050509050019350505050604051809103906000f0801580156101c4573d6000803e3d6000fd5b5090507f6e877a7ce643045677bd27a5c0de6e57f288261519675ab8f4a28cda252aa794818484604051808473ffffffffffffffffffffffffffffffffffffffff1673ffffffffffffffffffffffffffffffffffffffff1681526020018373ffffffffffffffffffffffffffffffffffffffff1673ffffffffffffffffffffffffffffffffffffffff16815260200180602001828103825283818151815260200191508051906020019060200280838360005b83811015610292578082015181840152602081019050610277565b5050505090500194505050505060405180910390a1505050565b604051611aa3806102bd8339019056fe608060405260006001553480156200001657600080fd5b5060405162001aa338038062001aa3833981018060405260408110156200003c57600080fd5b810190808051906020019092919080516401000000008111156200005f57600080fd5b828101905060208101848111156200007657600080fd5b81518560208202830111640100000000821117156200009457600080fd5b505092919050505060008151111515620000ad57600080fd5b60008090505b81518160ff1610156200033457608060405190810160405280838360ff16815181101515620000de57fe5b9060200190602002015173ffffffffffffffffffffffffffffffffffffffff1681526020016000815260200160038054905081526020016001151581525060026000848460ff168151811015156200013257fe5b9060200190602002015173ffffffffffffffffffffffffffffffffffffffff1673ffffffffffffffffffffffffffffffffffffffff16815260200190815260200160002060008201518160000160006101000a81548173ffffffffffffffffffffffffffffffffffffffff021916908373ffffffffffffffffffffffffffffffffffffffff160217905550602082015181600101556040820151816002015560608201518160030160006101000a81548160ff021916908315150217905550905050600360026000848460ff168151811015156200020c57fe5b9060200190602002015173ffffffffffffffffffffffffffffffffffffffff1673ffffffffffffffffffffffffffffffffffffffff168152602001908152602001600020908060018154018082558091505090600182039060005260206000209060040201600090919290919091506000820160009054906101000a900473ffffffffffffffffffffffffffffffffffffffff168160000160006101000a81548173ffffffffffffffffffffffffffffffffffffffff021916908373ffffffffffffffffffffffffffffffffffffffff16021790555060018201548160010155600282015481600201556003820160009054906101000a900460ff168160030160006101000a81548160ff0219169083151502179055505050508080600101915050620000b3565b50816000806101000a81548173ffffffffffffffffffffffffffffffffffffffff021916908373ffffffffffffffffffffffffffffffffffffffff160217905550505061171c80620003876000396000f3fe6080604052600436106100c5576000357c0100000000000000000000000000000000000000000000000000000000900463ffffffff1680630a12a4d1146100ca5780632e99637f146100ec5780633a98ef39146101175780634bde38c8146101425780634e6630b0146101995780636e6bd17d146101c45780637ecc29c91461022d5780637f9ec70b146102d75780638255e9af146103fd5780638aaac5a61461042c5780639e0ce283146105d5578063c726dea814610624578063ff954807146106b8575b600080fd5b6100d26106e3565b604051808215151515815260200191505060405180910390f35b3480156100f857600080fd5b50610101610918565b6040518082815260200191505060405180910390f35b34801561012357600080fd5b5061012c61091e565b6040518082815260200191505060405180910390f35b34801561014e57600080fd5b50610157610924565b604051808273ffffffffffffffffffffffffffffffffffffffff1673ffffffffffffffffffffffffffffffffffffffff16815260200191505060405180910390f35b3480156101a557600080fd5b506101ae610949565b6040518082815260200191505060405180910390f35b3480156101d057600080fd5b50610213600480360360208110156101e757600080fd5b81019080803573ffffffffffffffffffffffffffffffffffffffff169060200190929190505050610968565b604051808215151515815260200191505060405180910390f35b34801561023957600080fd5b5061027c6004803603602081101561025057600080fd5b81019080803573ffffffffffffffffffffffffffffffffffffffff169060200190929190505050610cf0565b604051808573ffffffffffffffffffffffffffffffffffffffff1673ffffffffffffffffffffffffffffffffffffffff1681526020018481526020018381526020018215151515815260200194505050505060405180910390f35b3480156102e357600080fd5b506103e7600480360360808110156102fa57600080fd5b81019080803573ffffffffffffffffffffffffffffffffffffffff169060200190929190803573ffffffffffffffffffffffffffffffffffffffff169060200190929190803590602001909291908035906020019064010000000081111561036157600080fd5b82018360208201111561037357600080fd5b8035906020019184600183028401116401000000008311171561039557600080fd5b91908080601f016020809104026020016040519081016040528093929190818152602001838380828437600081840152601f19601f820116905080830192505050505050509192919290505050610d4d565b6040518082815260200191505060405180910390f35b34801561040957600080fd5b50610412610ea8565b604051808215151515815260200191505060405180910390f35b34801561043857600080fd5b506105d3600480360360a081101561044f57600080fd5b810190808035906020019064010000000081111561046c57600080fd5b82018360208201111561047e57600080fd5b803590602001918460018302840111640100000000831117156104a057600080fd5b91908080601f016020809104026020016040519081016040528093929190818152602001838380828437600081840152601f19601f820116905080830192505050505050509192919290803573ffffffffffffffffffffffffffffffffffffffff169060200190929190803573ffffffffffffffffffffffffffffffffffffffff169060200190929190803590602001909291908035906020019064010000000081111561054d57600080fd5b82018360208201111561055f57600080fd5b8035906020019184600183028401116401000000008311171561058157600080fd5b91908080601f016020809104026020016040519081016040528093929190818152602001838380828437600081840152601f19601f8201169050808301925050505050505091929192905050506110f5565b005b3480156105e157600080fd5b5061060e600480360360208110156105f857600080fd5b81019080803590602001909291905050506112b1565b6040518082815260200191505060405180910390f35b34801561063057600080fd5b5061065d6004803603602081101561064757600080fd5b810190808035906020019092919050505061147b565b604051808573ffffffffffffffffffffffffffffffffffffffff1673ffffffffffffffffffffffffffffffffffffffff1681526020018481526020018381526020018215151515815260200194505050505060405180910390f35b3480156106c457600080fd5b506106cd6114e7565b6040518082815260200191505060405180910390f35b6000600260003373ffffffffffffffffffffffffffffffffffffffff1673ffffffffffffffffffffffffffffffffffffffff16815260200190815260200160002060030160009054906101000a900460ff16151561074057600080fd5b34600260003373ffffffffffffffffffffffffffffffffffffffff1673ffffffffffffffffffffffffffffffffffffffff16815260200190815260200160002060010181905550346003600260003373ffffffffffffffffffffffffffffffffffffffff1673ffffffffffffffffffffffffffffffffffffffff168152602001908152602001600020600201548154811015156107d957fe5b906000526020600020906004020160010181905550346001600082825401925050819055507f1fba003bb4019612818ef5707f93d87cb84beb08696c5606dcd8501b2631a309600260003373ffffffffffffffffffffffffffffffffffffffff1673ffffffffffffffffffffffffffffffffffffffff16815260200190815260200160002060000160009054906101000a900473ffffffffffffffffffffffffffffffffffffffff16604051808273ffffffffffffffffffffffffffffffffffffffff1673ffffffffffffffffffffffffffffffffffffffff16815260200191505060405180910390a1600260003373ffffffffffffffffffffffffffffffffffffffff1673ffffffffffffffffffffffffffffffffffffffff16815260200190815260200160002060030160009054906101000a900460ff16905090565b60045481565b60015481565b6000809054906101000a900473ffffffffffffffffffffffffffffffffffffffff1681565b60003073ffffffffffffffffffffffffffffffffffffffff1631905090565b6000600260003373ffffffffffffffffffffffffffffffffffffffff1673ffffffffffffffffffffffffffffffffffffffff16815260200190815260200160002060030160009054906101000a900460ff1615156109c557600080fd5b600260008373ffffffffffffffffffffffffffffffffffffffff1673ffffffffffffffffffffffffffffffffffffffff16815260200190815260200160002060030160009054906101000a900460ff16151515610a2157600080fd5b6080604051908101604052808373ffffffffffffffffffffffffffffffffffffffff16815260200160008152602001600380549050815260200160011515815250600260008473ffffffffffffffffffffffffffffffffffffffff1673ffffffffffffffffffffffffffffffffffffffff16815260200190815260200160002060008201518160000160006101000a81548173ffffffffffffffffffffffffffffffffffffffff021916908373ffffffffffffffffffffffffffffffffffffffff160217905550602082015181600101556040820151816002015560608201518160030160006101000a81548160ff0219169083151502179055509050506003600260008473ffffffffffffffffffffffffffffffffffffffff1673ffffffffffffffffffffffffffffffffffffffff168152602001908152602001600020908060018154018082558091505090600182039060005260206000209060040201600090919290919091506000820160009054906101000a900473ffffffffffffffffffffffffffffffffffffffff168160000160006101000a81548173ffffffffffffffffffffffffffffffffffffffff021916908373ffffffffffffffffffffffffffffffffffffffff16021790555060018201548160010155600282015481600201556003820160009054906101000a900460ff168160030160006101000a81548160ff0219169083151502179055505050507f39c65a6aa242eb499727ebbd1cda50200a77aab08ae5fd3c66fd0a2d12d95f8882604051808273ffffffffffffffffffffffffffffffffffffffff1673ffffffffffffffffffffffffffffffffffffffff16815260200191505060405180910390a1600260008373ffffffffffffffffffffffffffffffffffffffff1673ffffffffffffffffffffffffffffffffffffffff16815260200190815260200160002060030160009054906101000a900460ff169050919050565b60026020528060005260406000206000915090508060000160009054906101000a900473ffffffffffffffffffffffffffffffffffffffff16908060010154908060020154908060030160009054906101000a900460ff16905084565b60003085858585600454604051602001808773ffffffffffffffffffffffffffffffffffffffff1673ffffffffffffffffffffffffffffffffffffffff166c010000000000000000000000000281526014018673ffffffffffffffffffffffffffffffffffffffff1673ffffffffffffffffffffffffffffffffffffffff166c010000000000000000000000000281526014018573ffffffffffffffffffffffffffffffffffffffff1673ffffffffffffffffffffffffffffffffffffffff166c0100000000000000000000000002815260140184815260200183805190602001908083835b602083101515610e585780518252602082019150602081019050602083039250610e33565b6001836020036101000a0380198251168184511680821785525050505050509050018281526020019650505050505050604051602081830303815290604052805190602001209050949350505050565b6000600260003373ffffffffffffffffffffffffffffffffffffffff1673ffffffffffffffffffffffffffffffffffffffff16815260200190815260200160002060030160009054906101000a900460ff161515610f0557600080fd5b6000600260003373ffffffffffffffffffffffffffffffffffffffff1673ffffffffffffffffffffffffffffffffffffffff16815260200190815260200160002060030160006101000a81548160ff02191690831515021790555060006003600260003373ffffffffffffffffffffffffffffffffffffffff1673ffffffffffffffffffffffffffffffffffffffff16815260200190815260200160002060020154815481101515610fb357fe5b906000526020600020906004020160030160006101000a81548160ff0219169083151502179055507f92dfe2148050404f916d6a3b78da7692862113851539d4c4ad60aa68e6114e99600260003373ffffffffffffffffffffffffffffffffffffffff1673ffffffffffffffffffffffffffffffffffffffff16815260200190815260200160002060000160009054906101000a900473ffffffffffffffffffffffffffffffffffffffff16604051808273ffffffffffffffffffffffffffffffffffffffff1673ffffffffffffffffffffffffffffffffffffffff16815260200191505060405180910390a1600260003373ffffffffffffffffffffffffffffffffffffffff1673ffffffffffffffffffffffffffffffffffffffff16815260200190815260200160002060030160009054906101000a900460ff16905090565b600061110385858585610d4d565b90506004600081548092919060010191905055506111218187611557565b15156111bb576040517f08c379a000000000000000000000000000000000000000000000000000000000815260040180806020018281038252602f8152602001807f426f756e63657250726f78793a3a666f7277617264205369676e65722069732081526020017f6e6f742077686974656c6973746564000000000000000000000000000000000081525060400191505060405180910390fd5b6111c68484846116d8565b15156111d157600080fd5b7f3a01071b5ba48a1a263069a16f634ac859431aadc65b9a622c9566f778a7bb3a848484604051808473ffffffffffffffffffffffffffffffffffffffff1673ffffffffffffffffffffffffffffffffffffffff16815260200183815260200180602001828103825283818151815260200191508051906020019080838360005b8381101561126d578082015181840152602081019050611252565b50505050905090810190601f16801561129a5780820380516001836020036101000a031916815260200191505b5094505050505060405180910390a1505050505050565b6000600260003373ffffffffffffffffffffffffffffffffffffffff1673ffffffffffffffffffffffffffffffffffffffff16815260200190815260200160002060030160009054906101000a900460ff16151561130e57600080fd5b81600260003373ffffffffffffffffffffffffffffffffffffffff1673ffffffffffffffffffffffffffffffffffffffff168152602001908152602001600020600101541015151561135f57600080fd5b81600260003373ffffffffffffffffffffffffffffffffffffffff1673ffffffffffffffffffffffffffffffffffffffff1681526020019081526020016000206001015403600260003373ffffffffffffffffffffffffffffffffffffffff1673ffffffffffffffffffffffffffffffffffffffff168152602001908152602001600020600101819055503373ffffffffffffffffffffffffffffffffffffffff166108fc839081150290604051600060405180830381858888f19350505050158015611430573d6000803e3d6000fd5b50600260003373ffffffffffffffffffffffffffffffffffffffff1673ffffffffffffffffffffffffffffffffffffffff168152602001908152602001600020600101549050919050565b60038181548110151561148a57fe5b90600052602060002090600402016000915090508060000160009054906101000a900473ffffffffffffffffffffffffffffffffffffffff16908060010154908060020154908060030160009054906101000a900460ff16905084565b6000600154600260003373ffffffffffffffffffffffffffffffffffffffff1673ffffffffffffffffffffffffffffffffffffffff168152602001908152602001600020600101543073ffffffffffffffffffffffffffffffffffffffff16310281151561155157fe5b04905090565b6000806000806041855114151561157457600093505050506116d2565b6020850151925060408501519150606085015160001a9050601b8160ff16101561159f57601b810190505b601b8160ff16141580156115b75750601c8160ff1614155b156115c857600093505050506116d2565b6002600060018860405160200180807f19457468657265756d205369676e6564204d6573736167653a0a333200000000815250601c018281526020019150506040516020818303038152906040528051906020012084878760405160008152602001604052604051808581526020018460ff1660ff1681526020018381526020018281526020019450505050506020604051602081039080840390855afa158015611677573d6000803e3d6000fd5b5050506020604051035173ffffffffffffffffffffffffffffffffffffffff1673ffffffffffffffffffffffffffffffffffffffff16815260200190815260200160002060030160009054906101000a900460ff1693505050505b92915050565b600080600083516020850186885af19050939250505056fea165627a7a72305820cfc99095c360c1c9ec83bc3fa7910f0872e25d868830fbc4a3b200c209815c5a0029a165627a7a72305820af99080c650ef81613577c9704960cfa673a97a58be865d3cecc85b1ea56b7830029",
  "source": "pragma solidity ^0.5.0;\nimport './Portfolio.sol';\n\ncontract PortfolioFactory {\n  \n  event NewContract (\n    address deployedAt,\n    address platform,\n    address[] members\n  );\n\n  // create contract\n  function createPortfolio(\n    address _platform,\n    address[] memory _members\n  ) public payable {\n\n    Portfolio newPortfolio = new Portfolio(\n      _platform,\n      _members\n    );\n    \n    emit NewContract(address(newPortfolio), _platform,\n      _members);\n  }\n\n}",
  "sourcePath": "/Users/mattlovan/Projects/servesa/kurata/contracts/PortfolioFactory.sol",
  "compiler": {
    "name": "solc",
    "version": "0.5.0+commit.1d4f565a.Emscripten.clang"
  },
  "schemaVersion": "3.0.1",
  "updatedAt": "2019-02-25T18:34:24.360Z",
  "devdoc": {
    "methods": {}
  },
  "userdoc": {
    "methods": {}
  }
}