{
  "contractName": "Portfolio",
  "abi": [
    {
      "constant": true,
      "inputs": [],
      "name": "tradeNonce",
      "outputs": [
        {
          "name": "",
          "type": "uint256"
        }
      ],
      "payable": false,
      "stateMutability": "view",
      "type": "function",
      "signature": "0x2e99637f"
    },
    {
      "constant": true,
      "inputs": [],
      "name": "totalShares",
      "outputs": [
        {
          "name": "",
          "type": "uint256"
        }
      ],
      "payable": false,
      "stateMutability": "view",
      "type": "function",
      "signature": "0x3a98ef39"
    },
    {
      "constant": true,
      "inputs": [],
      "name": "platform",
      "outputs": [
        {
          "name": "",
          "type": "address"
        }
      ],
      "payable": false,
      "stateMutability": "view",
      "type": "function",
      "signature": "0x4bde38c8"
    },
    {
      "constant": true,
      "inputs": [
        {
          "name": "",
          "type": "address"
        }
      ],
      "name": "memberMap",
      "outputs": [
        {
          "name": "name",
          "type": "string"
        },
        {
          "name": "memberAddress",
          "type": "address"
        },
        {
          "name": "shares",
          "type": "uint256"
        },
        {
          "name": "index",
          "type": "uint256"
        },
        {
          "name": "valid",
          "type": "bool"
        }
      ],
      "payable": false,
      "stateMutability": "view",
      "type": "function",
      "signature": "0x7ecc29c9"
    },
    {
      "constant": true,
      "inputs": [
        {
          "name": "",
          "type": "uint256"
        }
      ],
      "name": "memberArray",
      "outputs": [
        {
          "name": "name",
          "type": "string"
        },
        {
          "name": "memberAddress",
          "type": "address"
        },
        {
          "name": "shares",
          "type": "uint256"
        },
        {
          "name": "index",
          "type": "uint256"
        },
        {
          "name": "valid",
          "type": "bool"
        }
      ],
      "payable": false,
      "stateMutability": "view",
      "type": "function",
      "signature": "0xc726dea8"
    },
    {
      "constant": true,
      "inputs": [],
      "name": "adminMember",
      "outputs": [
        {
          "name": "",
          "type": "address"
        }
      ],
      "payable": false,
      "stateMutability": "view",
      "type": "function",
      "signature": "0xd1226eb9"
    },
    {
      "inputs": [
        {
          "name": "_platform",
          "type": "address"
        },
        {
          "name": "_adminMember",
          "type": "address"
        },
        {
          "name": "_adminName",
          "type": "string"
        }
      ],
      "payable": false,
      "stateMutability": "nonpayable",
      "type": "constructor",
      "signature": "constructor"
    },
    {
      "anonymous": false,
      "inputs": [
        {
          "indexed": false,
          "name": "memberAddress",
          "type": "address"
        },
        {
          "indexed": false,
          "name": "newShareCount",
          "type": "uint256"
        }
      ],
      "name": "ShareUpdated",
      "type": "event",
      "signature": "0x465bc1e774b3c331b04932a22f9781dbb864defe943d70548ba9b8af6c528b5c"
    },
    {
      "anonymous": false,
      "inputs": [
        {
          "indexed": false,
          "name": "name",
          "type": "string"
        },
        {
          "indexed": false,
          "name": "memberAddress",
          "type": "address"
        }
      ],
      "name": "RegisterMember",
      "type": "event",
      "signature": "0xc58b6ceaf22ccbf5e94cb57e5a3bbdf365f933625d7f9303e0d7e5c1cd078b16"
    },
    {
      "anonymous": false,
      "inputs": [
        {
          "indexed": false,
          "name": "memberAddress",
          "type": "address"
        }
      ],
      "name": "UnregisterMember",
      "type": "event",
      "signature": "0x92dfe2148050404f916d6a3b78da7692862113851539d4c4ad60aa68e6114e99"
    },
    {
      "anonymous": false,
      "inputs": [
        {
          "indexed": false,
          "name": "memberAddress",
          "type": "address"
        }
      ],
      "name": "DepositByMember",
      "type": "event",
      "signature": "0x1fba003bb4019612818ef5707f93d87cb84beb08696c5606dcd8501b2631a309"
    },
    {
      "anonymous": false,
      "inputs": [
        {
          "indexed": false,
          "name": "destination",
          "type": "address"
        },
        {
          "indexed": false,
          "name": "value",
          "type": "uint256"
        },
        {
          "indexed": false,
          "name": "data",
          "type": "bytes"
        }
      ],
      "name": "TradeExecuted",
      "type": "event",
      "signature": "0x3a01071b5ba48a1a263069a16f634ac859431aadc65b9a622c9566f778a7bb3a"
    },
    {
      "constant": true,
      "inputs": [],
      "name": "ethBalance",
      "outputs": [
        {
          "name": "balance",
          "type": "uint256"
        }
      ],
      "payable": false,
      "stateMutability": "view",
      "type": "function",
      "signature": "0x4e6630b0"
    },
    {
      "constant": false,
      "inputs": [
        {
          "name": "_name",
          "type": "string"
        },
        {
          "name": "_memberAddress",
          "type": "address"
        }
      ],
      "name": "memberRegister",
      "outputs": [
        {
          "name": "registered",
          "type": "bool"
        }
      ],
      "payable": false,
      "stateMutability": "nonpayable",
      "type": "function",
      "signature": "0x781838b8"
    },
    {
      "constant": false,
      "inputs": [
        {
          "name": "_memberAddress",
          "type": "address"
        }
      ],
      "name": "memberUnregister",
      "outputs": [
        {
          "name": "registered",
          "type": "bool"
        }
      ],
      "payable": false,
      "stateMutability": "nonpayable",
      "type": "function",
      "signature": "0xd5b55cc7"
    },
    {
      "constant": false,
      "inputs": [],
      "name": "memberDeposit",
      "outputs": [
        {
          "name": "registered",
          "type": "bool"
        }
      ],
      "payable": true,
      "stateMutability": "payable",
      "type": "function",
      "signature": "0x0a12a4d1"
    },
    {
      "constant": true,
      "inputs": [],
      "name": "memberShare",
      "outputs": [
        {
          "name": "balance",
          "type": "uint256"
        }
      ],
      "payable": false,
      "stateMutability": "view",
      "type": "function",
      "signature": "0xff954807"
    },
    {
      "constant": false,
      "inputs": [
        {
          "name": "_shares",
          "type": "uint256"
        }
      ],
      "name": "memberWithdrawl",
      "outputs": [
        {
          "name": "endBalance",
          "type": "uint256"
        }
      ],
      "payable": false,
      "stateMutability": "nonpayable",
      "type": "function",
      "signature": "0x9e0ce283"
    },
    {
      "constant": false,
      "inputs": [
        {
          "name": "_newShares",
          "type": "uint256"
        }
      ],
      "name": "increaseTotalShares",
      "outputs": [
        {
          "name": "shareCount",
          "type": "uint256"
        }
      ],
      "payable": false,
      "stateMutability": "nonpayable",
      "type": "function",
      "signature": "0x3ff8e3a9"
    },
    {
      "constant": false,
      "inputs": [
        {
          "name": "_member",
          "type": "address"
        },
        {
          "name": "_newShares",
          "type": "uint256"
        }
      ],
      "name": "increaseMemberShares",
      "outputs": [
        {
          "name": "shareCount",
          "type": "uint256"
        }
      ],
      "payable": false,
      "stateMutability": "nonpayable",
      "type": "function",
      "signature": "0x1a4d5ffe"
    },
    {
      "constant": false,
      "inputs": [
        {
          "name": "sig",
          "type": "bytes"
        },
        {
          "name": "signer",
          "type": "address"
        },
        {
          "name": "destination",
          "type": "address"
        },
        {
          "name": "value",
          "type": "uint256"
        },
        {
          "name": "data",
          "type": "bytes"
        }
      ],
      "name": "executeTrade",
      "outputs": [],
      "payable": false,
      "stateMutability": "nonpayable",
      "type": "function",
      "signature": "0x8aaac5a6"
    },
    {
      "constant": true,
      "inputs": [
        {
          "name": "signer",
          "type": "address"
        },
        {
          "name": "destination",
          "type": "address"
        },
        {
          "name": "value",
          "type": "uint256"
        },
        {
          "name": "data",
          "type": "bytes"
        }
      ],
      "name": "getHash",
      "outputs": [
        {
          "name": "",
          "type": "bytes32"
        }
      ],
      "payable": false,
      "stateMutability": "view",
      "type": "function",
      "signature": "0x7f9ec70b"
    }
  ],
  "bytecode": "0x608060405260006001553480156200001657600080fd5b50604051620024ca380380620024ca833981018060405260608110156200003c57600080fd5b81019080805190602001909291908051906020019092919080516401000000008111156200006957600080fd5b828101905060208101848111156200008057600080fd5b81518560018202830111640100000000821117156200009e57600080fd5b5050929190505050826000806101000a81548173ffffffffffffffffffffffffffffffffffffffff021916908373ffffffffffffffffffffffffffffffffffffffff16021790555081600260006101000a81548173ffffffffffffffffffffffffffffffffffffffff021916908373ffffffffffffffffffffffffffffffffffffffff16021790555060a0604051908101604052808281526020018373ffffffffffffffffffffffffffffffffffffffff16815260200160008152602001600480549050815260200160011515815250600360008473ffffffffffffffffffffffffffffffffffffffff1673ffffffffffffffffffffffffffffffffffffffff1681526020019081526020016000206000820151816000019080519060200190620001cb92919062000394565b5060208201518160010160006101000a81548173ffffffffffffffffffffffffffffffffffffffff021916908373ffffffffffffffffffffffffffffffffffffffff160217905550604082015181600201556060820151816003015560808201518160040160006101000a81548160ff0219169083151502179055509050506004600360008473ffffffffffffffffffffffffffffffffffffffff1673ffffffffffffffffffffffffffffffffffffffff1681526020019081526020016000209080600181540180825580915050906001820390600052602060002090600502016000909192909190915060008201816000019080546001816001161561010002031660029004620002df9291906200041b565b506001820160009054906101000a900473ffffffffffffffffffffffffffffffffffffffff168160010160006101000a81548173ffffffffffffffffffffffffffffffffffffffff021916908373ffffffffffffffffffffffffffffffffffffffff16021790555060028201548160020155600382015481600301556004820160009054906101000a900460ff168160040160006101000a81548160ff021916908315150217905550505050505050620004d1565b828054600181600116156101000203166002900490600052602060002090601f016020900481019282601f10620003d757805160ff191683800117855562000408565b8280016001018555821562000408579182015b8281111562000407578251825591602001919060010190620003ea565b5b509050620004179190620004a9565b5090565b828054600181600116156101000203166002900490600052602060002090601f016020900481019282601f1062000456578054855562000496565b828001600101855582156200049657600052602060002091601f016020900482015b828111156200049557825482559160010191906001019062000478565b5b509050620004a59190620004a9565b5090565b620004ce91905b80821115620004ca576000816000905550600101620004b0565b5090565b90565b611fe980620004e16000396000f3fe6080604052600436106100e6576000357c0100000000000000000000000000000000000000000000000000000000900463ffffffff1680630a12a4d1146100eb5780631a4d5ffe1461010d5780632e99637f1461017c5780633a98ef39146101a75780633ff8e3a9146101d25780634bde38c8146102215780634e6630b014610278578063781838b8146102a35780637ecc29c9146103a35780637f9ec70b146104b95780638aaac5a6146105df5780639e0ce28314610788578063c726dea8146107d7578063d1226eb9146108d7578063d5b55cc71461092e578063ff95480714610997575b600080fd5b6100f36109c2565b604051808215151515815260200191505060405180910390f35b34801561011957600080fd5b506101666004803603604081101561013057600080fd5b81019080803573ffffffffffffffffffffffffffffffffffffffff16906020019092919080359060200190929190505050610bf7565b6040518082815260200191505060405180910390f35b34801561018857600080fd5b50610191610db8565b6040518082815260200191505060405180910390f35b3480156101b357600080fd5b506101bc610dbe565b6040518082815260200191505060405180910390f35b3480156101de57600080fd5b5061020b600480360360208110156101f557600080fd5b8101908080359060200190929190505050610dc4565b6040518082815260200191505060405180910390f35b34801561022d57600080fd5b50610236610ea6565b604051808273ffffffffffffffffffffffffffffffffffffffff1673ffffffffffffffffffffffffffffffffffffffff16815260200191505060405180910390f35b34801561028457600080fd5b5061028d610ecb565b6040518082815260200191505060405180910390f35b3480156102af57600080fd5b50610389600480360360408110156102c657600080fd5b81019080803590602001906401000000008111156102e357600080fd5b8201836020820111156102f557600080fd5b8035906020019184600183028401116401000000008311171561031757600080fd5b91908080601f016020809104026020016040519081016040528093929190818152602001838380828437600081840152601f19601f820116905080830192505050505050509192919290803573ffffffffffffffffffffffffffffffffffffffff169060200190929190505050610eea565b604051808215151515815260200191505060405180910390f35b3480156103af57600080fd5b506103f2600480360360208110156103c657600080fd5b81019080803573ffffffffffffffffffffffffffffffffffffffff16906020019092919050505061132c565b60405180806020018673ffffffffffffffffffffffffffffffffffffffff1673ffffffffffffffffffffffffffffffffffffffff16815260200185815260200184815260200183151515158152602001828103825287818151815260200191508051906020019080838360005b8381101561047a57808201518184015260208101905061045f565b50505050905090810190601f1680156104a75780820380516001836020036101000a031916815260200191505b50965050505050505060405180910390f35b3480156104c557600080fd5b506105c9600480360360808110156104dc57600080fd5b81019080803573ffffffffffffffffffffffffffffffffffffffff169060200190929190803573ffffffffffffffffffffffffffffffffffffffff169060200190929190803590602001909291908035906020019064010000000081111561054357600080fd5b82018360208201111561055557600080fd5b8035906020019184600183028401116401000000008311171561057757600080fd5b91908080601f016020809104026020016040519081016040528093929190818152602001838380828437600081840152601f19601f820116905080830192505050505050509192919290505050611427565b6040518082815260200191505060405180910390f35b3480156105eb57600080fd5b50610786600480360360a081101561060257600080fd5b810190808035906020019064010000000081111561061f57600080fd5b82018360208201111561063157600080fd5b8035906020019184600183028401116401000000008311171561065357600080fd5b91908080601f016020809104026020016040519081016040528093929190818152602001838380828437600081840152601f19601f820116905080830192505050505050509192919290803573ffffffffffffffffffffffffffffffffffffffff169060200190929190803573ffffffffffffffffffffffffffffffffffffffff169060200190929190803590602001909291908035906020019064010000000081111561070057600080fd5b82018360208201111561071257600080fd5b8035906020019184600183028401116401000000008311171561073457600080fd5b91908080601f016020809104026020016040519081016040528093929190818152602001838380828437600081840152601f19601f820116905080830192505050505050509192919290505050611582565b005b34801561079457600080fd5b506107c1600480360360208110156107ab57600080fd5b810190808035906020019092919050505061173e565b6040518082815260200191505060405180910390f35b3480156107e357600080fd5b50610810600480360360208110156107fa57600080fd5b8101908080359060200190929190505050611908565b60405180806020018673ffffffffffffffffffffffffffffffffffffffff1673ffffffffffffffffffffffffffffffffffffffff16815260200185815260200184815260200183151515158152602001828103825287818151815260200191508051906020019080838360005b8381101561089857808201518184015260208101905061087d565b50505050905090810190601f1680156108c55780820380516001836020036101000a031916815260200191505b50965050505050505060405180910390f35b3480156108e357600080fd5b506108ec611a12565b604051808273ffffffffffffffffffffffffffffffffffffffff1673ffffffffffffffffffffffffffffffffffffffff16815260200191505060405180910390f35b34801561093a57600080fd5b5061097d6004803603602081101561095157600080fd5b81019080803573ffffffffffffffffffffffffffffffffffffffff169060200190929190505050611a38565b604051808215151515815260200191505060405180910390f35b3480156109a357600080fd5b506109ac611c88565b6040518082815260200191505060405180910390f35b6000600360003373ffffffffffffffffffffffffffffffffffffffff1673ffffffffffffffffffffffffffffffffffffffff16815260200190815260200160002060040160009054906101000a900460ff161515610a1f57600080fd5b34600360003373ffffffffffffffffffffffffffffffffffffffff1673ffffffffffffffffffffffffffffffffffffffff16815260200190815260200160002060020181905550346004600360003373ffffffffffffffffffffffffffffffffffffffff1673ffffffffffffffffffffffffffffffffffffffff16815260200190815260200160002060030154815481101515610ab857fe5b906000526020600020906005020160020181905550346001600082825401925050819055507f1fba003bb4019612818ef5707f93d87cb84beb08696c5606dcd8501b2631a309600360003373ffffffffffffffffffffffffffffffffffffffff1673ffffffffffffffffffffffffffffffffffffffff16815260200190815260200160002060010160009054906101000a900473ffffffffffffffffffffffffffffffffffffffff16604051808273ffffffffffffffffffffffffffffffffffffffff1673ffffffffffffffffffffffffffffffffffffffff16815260200191505060405180910390a1600360003373ffffffffffffffffffffffffffffffffffffffff1673ffffffffffffffffffffffffffffffffffffffff16815260200190815260200160002060040160009054906101000a900460ff16905090565b60008060009054906101000a900473ffffffffffffffffffffffffffffffffffffffff1673ffffffffffffffffffffffffffffffffffffffff163373ffffffffffffffffffffffffffffffffffffffff16141515610c5457600080fd5b81600360008573ffffffffffffffffffffffffffffffffffffffff1673ffffffffffffffffffffffffffffffffffffffff16815260200190815260200160002060020181905550816004600360008673ffffffffffffffffffffffffffffffffffffffff1673ffffffffffffffffffffffffffffffffffffffff16815260200190815260200160002060030154815481101515610ced57fe5b9060005260206000209060050201600201819055507f465bc1e774b3c331b04932a22f9781dbb864defe943d70548ba9b8af6c528b5c8383604051808373ffffffffffffffffffffffffffffffffffffffff1673ffffffffffffffffffffffffffffffffffffffff1681526020018281526020019250505060405180910390a1600360008473ffffffffffffffffffffffffffffffffffffffff1673ffffffffffffffffffffffffffffffffffffffff16815260200190815260200160002060020154905092915050565b60055481565b60015481565b60008060009054906101000a900473ffffffffffffffffffffffffffffffffffffffff1673ffffffffffffffffffffffffffffffffffffffff163373ffffffffffffffffffffffffffffffffffffffff16141515610e2157600080fd5b816001600082825401925050819055507f465bc1e774b3c331b04932a22f9781dbb864defe943d70548ba9b8af6c528b5c3383604051808373ffffffffffffffffffffffffffffffffffffffff1673ffffffffffffffffffffffffffffffffffffffff1681526020018281526020019250505060405180910390a16001549050919050565b6000809054906101000a900473ffffffffffffffffffffffffffffffffffffffff1681565b60003073ffffffffffffffffffffffffffffffffffffffff1631905090565b6000600260009054906101000a900473ffffffffffffffffffffffffffffffffffffffff1673ffffffffffffffffffffffffffffffffffffffff163373ffffffffffffffffffffffffffffffffffffffff16141515610f4857600080fd5b600360008373ffffffffffffffffffffffffffffffffffffffff1673ffffffffffffffffffffffffffffffffffffffff16815260200190815260200160002060040160009054906101000a900460ff16151515610fa457600080fd5b60a0604051908101604052808481526020018373ffffffffffffffffffffffffffffffffffffffff16815260200160008152602001600480549050815260200160011515815250600360008473ffffffffffffffffffffffffffffffffffffffff1673ffffffffffffffffffffffffffffffffffffffff1681526020019081526020016000206000820151816000019080519060200190611046929190611e91565b5060208201518160010160006101000a81548173ffffffffffffffffffffffffffffffffffffffff021916908373ffffffffffffffffffffffffffffffffffffffff160217905550604082015181600201556060820151816003015560808201518160040160006101000a81548160ff0219169083151502179055509050506004600360008473ffffffffffffffffffffffffffffffffffffffff1673ffffffffffffffffffffffffffffffffffffffff1681526020019081526020016000209080600181540180825580915050906001820390600052602060002090600502016000909192909190915060008201816000019080546001816001161561010002031660029004611158929190611f11565b506001820160009054906101000a900473ffffffffffffffffffffffffffffffffffffffff168160010160006101000a81548173ffffffffffffffffffffffffffffffffffffffff021916908373ffffffffffffffffffffffffffffffffffffffff16021790555060028201548160020155600382015481600301556004820160009054906101000a900460ff168160040160006101000a81548160ff0219169083151502179055505050507fc58b6ceaf22ccbf5e94cb57e5a3bbdf365f933625d7f9303e0d7e5c1cd078b16838360405180806020018373ffffffffffffffffffffffffffffffffffffffff1673ffffffffffffffffffffffffffffffffffffffff168152602001828103825284818151815260200191508051906020019080838360005b8381101561129957808201518184015260208101905061127e565b50505050905090810190601f1680156112c65780820380516001836020036101000a031916815260200191505b50935050505060405180910390a1600360008373ffffffffffffffffffffffffffffffffffffffff1673ffffffffffffffffffffffffffffffffffffffff16815260200190815260200160002060040160009054906101000a900460ff16905092915050565b6003602052806000526040600020600091509050806000018054600181600116156101000203166002900480601f0160208091040260200160405190810160405280929190818152602001828054600181600116156101000203166002900480156113d85780601f106113ad576101008083540402835291602001916113d8565b820191906000526020600020905b8154815290600101906020018083116113bb57829003601f168201915b5050505050908060010160009054906101000a900473ffffffffffffffffffffffffffffffffffffffff16908060020154908060030154908060040160009054906101000a900460ff16905085565b60003085858585600554604051602001808773ffffffffffffffffffffffffffffffffffffffff1673ffffffffffffffffffffffffffffffffffffffff166c010000000000000000000000000281526014018673ffffffffffffffffffffffffffffffffffffffff1673ffffffffffffffffffffffffffffffffffffffff166c010000000000000000000000000281526014018573ffffffffffffffffffffffffffffffffffffffff1673ffffffffffffffffffffffffffffffffffffffff166c0100000000000000000000000002815260140184815260200183805190602001908083835b602083101515611532578051825260208201915060208101905060208303925061150d565b6001836020036101000a0380198251168184511680821785525050505050509050018281526020019650505050505050604051602081830303815290604052805190602001209050949350505050565b600061159085858585611427565b90506005600081548092919060010191905055506115ae8187611cf8565b1515611648576040517f08c379a000000000000000000000000000000000000000000000000000000000815260040180806020018281038252602f8152602001807f426f756e63657250726f78793a3a666f7277617264205369676e65722069732081526020017f6e6f742077686974656c6973746564000000000000000000000000000000000081525060400191505060405180910390fd5b611653848484611e79565b151561165e57600080fd5b7f3a01071b5ba48a1a263069a16f634ac859431aadc65b9a622c9566f778a7bb3a848484604051808473ffffffffffffffffffffffffffffffffffffffff1673ffffffffffffffffffffffffffffffffffffffff16815260200183815260200180602001828103825283818151815260200191508051906020019080838360005b838110156116fa5780820151818401526020810190506116df565b50505050905090810190601f1680156117275780820380516001836020036101000a031916815260200191505b5094505050505060405180910390a1505050505050565b6000600360003373ffffffffffffffffffffffffffffffffffffffff1673ffffffffffffffffffffffffffffffffffffffff16815260200190815260200160002060040160009054906101000a900460ff16151561179b57600080fd5b81600360003373ffffffffffffffffffffffffffffffffffffffff1673ffffffffffffffffffffffffffffffffffffffff16815260200190815260200160002060020154101515156117ec57600080fd5b81600360003373ffffffffffffffffffffffffffffffffffffffff1673ffffffffffffffffffffffffffffffffffffffff1681526020019081526020016000206002015403600360003373ffffffffffffffffffffffffffffffffffffffff1673ffffffffffffffffffffffffffffffffffffffff168152602001908152602001600020600201819055503373ffffffffffffffffffffffffffffffffffffffff166108fc839081150290604051600060405180830381858888f193505050501580156118bd573d6000803e3d6000fd5b50600360003373ffffffffffffffffffffffffffffffffffffffff1673ffffffffffffffffffffffffffffffffffffffff168152602001908152602001600020600201549050919050565b60048181548110151561191757fe5b9060005260206000209060050201600091509050806000018054600181600116156101000203166002900480601f0160208091040260200160405190810160405280929190818152602001828054600181600116156101000203166002900480156119c35780601f10611998576101008083540402835291602001916119c3565b820191906000526020600020905b8154815290600101906020018083116119a657829003601f168201915b5050505050908060010160009054906101000a900473ffffffffffffffffffffffffffffffffffffffff16908060020154908060030154908060040160009054906101000a900460ff16905085565b600260009054906101000a900473ffffffffffffffffffffffffffffffffffffffff1681565b6000600260009054906101000a900473ffffffffffffffffffffffffffffffffffffffff1673ffffffffffffffffffffffffffffffffffffffff163373ffffffffffffffffffffffffffffffffffffffff16141515611a9657600080fd5b6000600360008473ffffffffffffffffffffffffffffffffffffffff1673ffffffffffffffffffffffffffffffffffffffff16815260200190815260200160002060040160006101000a81548160ff02191690831515021790555060006004600360008573ffffffffffffffffffffffffffffffffffffffff1673ffffffffffffffffffffffffffffffffffffffff16815260200190815260200160002060030154815481101515611b4457fe5b906000526020600020906005020160040160006101000a81548160ff0219169083151502179055507f92dfe2148050404f916d6a3b78da7692862113851539d4c4ad60aa68e6114e99600360008473ffffffffffffffffffffffffffffffffffffffff1673ffffffffffffffffffffffffffffffffffffffff16815260200190815260200160002060010160009054906101000a900473ffffffffffffffffffffffffffffffffffffffff16604051808273ffffffffffffffffffffffffffffffffffffffff1673ffffffffffffffffffffffffffffffffffffffff16815260200191505060405180910390a1600360008373ffffffffffffffffffffffffffffffffffffffff1673ffffffffffffffffffffffffffffffffffffffff16815260200190815260200160002060040160009054906101000a900460ff169050919050565b6000600154600360003373ffffffffffffffffffffffffffffffffffffffff1673ffffffffffffffffffffffffffffffffffffffff168152602001908152602001600020600201543073ffffffffffffffffffffffffffffffffffffffff163102811515611cf257fe5b04905090565b60008060008060418551141515611d155760009350505050611e73565b6020850151925060408501519150606085015160001a9050601b8160ff161015611d4057601b810190505b601b8160ff1614158015611d585750601c8160ff1614155b15611d695760009350505050611e73565b6003600060018860405160200180807f19457468657265756d205369676e6564204d6573736167653a0a333200000000815250601c018281526020019150506040516020818303038152906040528051906020012084878760405160008152602001604052604051808581526020018460ff1660ff1681526020018381526020018281526020019450505050506020604051602081039080840390855afa158015611e18573d6000803e3d6000fd5b5050506020604051035173ffffffffffffffffffffffffffffffffffffffff1673ffffffffffffffffffffffffffffffffffffffff16815260200190815260200160002060040160009054906101000a900460ff1693505050505b92915050565b600080600083516020850186885af190509392505050565b828054600181600116156101000203166002900490600052602060002090601f016020900481019282601f10611ed257805160ff1916838001178555611f00565b82800160010185558215611f00579182015b82811115611eff578251825591602001919060010190611ee4565b5b509050611f0d9190611f98565b5090565b828054600181600116156101000203166002900490600052602060002090601f016020900481019282601f10611f4a5780548555611f87565b82800160010185558215611f8757600052602060002091601f016020900482015b82811115611f86578254825591600101919060010190611f6b565b5b509050611f949190611f98565b5090565b611fba91905b80821115611fb6576000816000905550600101611f9e565b5090565b9056fea165627a7a72305820e88d21928e6e84dac6b55f51e03e5260d22c197a9981d708911f00d96a4624eb0029",
  "source": "pragma solidity ^0.5.0;\n\ncontract Portfolio {\n  address public platform;\n\n  event ShareUpdated(\n    address memberAddress,\n    uint256 newShareCount\n  );\n  \n  \n  // Member management\n  uint public totalShares = 0;\n  address public adminMember;\n  struct Member {\n    string name;\n    address memberAddress;\n    uint shares;\n    uint256 index;\n    bool valid;\n  }\n  mapping (address => Member) public memberMap;\n  Member[] public memberArray;      \n  event RegisterMember(\n    string name,\n    address memberAddress\n      \n  );\n  event UnregisterMember(\n    address memberAddress\n  );\n  event DepositByMember(\n    address memberAddress\n  );\n  \n  \n  constructor(address _platform, address _adminMember, string memory _adminName) public {\n    \n    platform = _platform;\n    adminMember = _adminMember;\n\n    // add admin as member\n    memberMap[_adminMember] = Member(_adminName, _adminMember,0, memberArray.length, true);\n    memberArray.push(memberMap[_adminMember]);\n  }\n\n\n  function ethBalance() public view returns(uint256 balance){\n    return address(this).balance;\n  }\n  \n\n  // -------\n  // Member\n  // -------\n  \n  function memberRegister(string memory _name, address _memberAddress) public returns (bool registered){\n\n    // only admin\n    require(msg.sender == adminMember);\n        \n    // member does not exist\n    require(!memberMap[_memberAddress].valid);\n\n    memberMap[_memberAddress] = Member(_name, _memberAddress,0, memberArray.length, true);\n    memberArray.push(memberMap[_memberAddress]);\n\n    emit RegisterMember(_name, _memberAddress);\n\n    return memberMap[_memberAddress].valid;\n}\n\n  function memberUnregister(address _memberAddress) public returns (bool registered){\n\n    // only admin\n    require(msg.sender == adminMember);\n\n    // set valid to false\n    memberMap[_memberAddress].valid = false;\n    memberArray[memberMap[_memberAddress].index].valid = false;\n\n    emit UnregisterMember(memberMap[_memberAddress].memberAddress);\n    \n    return memberMap[_memberAddress].valid;\n  }\n\n  function memberDeposit() public payable returns (bool registered){\n\n    // only member\n    require(memberMap[msg.sender].valid);\n\n    // set valid to false\n    memberMap[msg.sender].shares = msg.value;\n    memberArray[memberMap[msg.sender].index].shares = msg.value;\n\n    // update total shares\n    totalShares += msg.value;\n\n    emit DepositByMember(memberMap[msg.sender].memberAddress);    \n    return memberMap[msg.sender].valid;\n  }\n\n  function memberShare() public view returns(uint256 balance){\n    return (address(this).balance * memberMap[msg.sender].shares) / totalShares;\n  }\n\n  function memberWithdrawl(uint256 _shares) public returns (uint256 endBalance){\n\n    // only member\n    require(memberMap[msg.sender].valid);\n\n    // has enough shares\n    require(memberMap[msg.sender].shares >= _shares);\n\n    // decrease shares\n    memberMap[msg.sender].shares = memberMap[msg.sender].shares - _shares;\n\n    // refund  \n    msg.sender.transfer(_shares);\n\n    return memberMap[msg.sender].shares;\n  }\n\n  \n  // -------\n  // Platform\n  // -------\n\n  // Do this on tournament start...\n  function increaseTotalShares(uint _newShares) public returns (uint shareCount){\n\n    // platform only\n    require(msg.sender == platform);\n\n    // update total\n    totalShares += _newShares;\n\n    emit ShareUpdated(msg.sender, _newShares);\n    return totalShares;\n  }\n\n  // Do this on tournament end...\n  function increaseMemberShares(address _member, uint256 _newShares) public returns (uint shareCount){\n\n    // platform only\n    require(msg.sender == platform);\n\n    // update member\n    memberMap[_member].shares = _newShares;\n    memberArray[memberMap[_member].index].shares = _newShares;\n\n    emit ShareUpdated(_member, _newShares);\n    return memberMap[_member].shares;\n  }\n\n\n  // -------\n  // Admin\n  // -------\n\n  // from Austin Griffith's bouncer proxy\n  uint256 public tradeNonce;\n  event TradeExecuted (address destination, uint value, bytes data);\n  \n  function executeTrade(bytes memory sig, address signer, address destination, uint value, bytes memory data) public {\n\n    //the hash contains all of the information about the meta transaction to be called\n    bytes32 _hash = getHash(signer, destination, value, data);\n\n    //increment the hash so this tx can't run again\n    tradeNonce++;\n\n    // only members...  \n    require(signerIsMember(_hash,sig),\"BouncerProxy::forward Signer is not whitelisted\");\n\n\n    //execute the transaction with all the given parameters\n    require(executeCall(destination, value, data));\n    emit TradeExecuted(destination, value, data);\n  }\n\n  function getHash(address signer, address destination, uint value, bytes memory data) public view returns(bytes32){\n    return keccak256(abi.encodePacked(address(this), signer, destination, value, data, tradeNonce));\n  }\n\n  function executeCall(address to, uint256 value, bytes  memory data) internal returns (bool success) {\n    assembly {\n       success := call(gas, to, value, add(data, 0x20), mload(data), 0, 0)\n    }\n  }\n\n  function signerIsMember(bytes32 _hash, bytes  memory _signature) internal view returns (bool){\n    bytes32 r;\n    bytes32 s;\n    uint8 v;\n    // Check the signature length\n    if (_signature.length != 65) {\n      return false;\n    }\n    // Divide the signature in r, s and v variables\n    // ecrecover takes the signature parameters, and the only way to get them\n    // currently is to use assembly.\n    // solium-disable-next-line security/no-inline-assembly\n    assembly {\n      r := mload(add(_signature, 32))\n      s := mload(add(_signature, 64))\n      v := byte(0, mload(add(_signature, 96)))\n    }\n    // Version of signature should be 27 or 28, but 0 and 1 are also possible versions\n    if (v < 27) {\n      v += 27;\n    }\n    // If the version is correct return the signer address\n    if (v != 27 && v != 28) {\n      return false;\n    } else {\n      // solium-disable-next-line arg-overflow\n      return \n        memberMap[ecrecover(keccak256(\n        abi.encodePacked(\"\\x19Ethereum Signed Message:\\n32\", _hash)\n      ), v, r, s)].valid;\n    }\n  }\n  \n}",
  "sourcePath": "/Users/mattlovan/Projects/servesa/kurata/contracts/Portfolio.sol",
  "compiler": {
    "name": "solc",
    "version": "0.5.0+commit.1d4f565a.Emscripten.clang"
  },
  "schemaVersion": "3.0.1",
  "updatedAt": "2019-02-17T19:55:20.119Z",
  "devdoc": {
    "methods": {}
  },
  "userdoc": {
    "methods": {}
  }
}