{
  "contractName": "SimpleStorage",
  "abi": [
    {
      "constant": true,
      "inputs": [],
      "name": "lastUpdatedBy",
      "outputs": [
        {
          "name": "",
          "type": "address"
        }
      ],
      "payable": false,
      "stateMutability": "view",
      "type": "function",
      "signature": "0x177b1ef5"
    },
    {
      "constant": true,
      "inputs": [],
      "name": "value",
      "outputs": [
        {
          "name": "",
          "type": "uint256"
        }
      ],
      "payable": false,
      "stateMutability": "view",
      "type": "function",
      "signature": "0x3fa4f245"
    },
    {
      "constant": false,
      "inputs": [
        {
          "name": "_value",
          "type": "uint256"
        }
      ],
      "name": "saveSender",
      "outputs": [],
      "payable": false,
      "stateMutability": "nonpayable",
      "type": "function",
      "signature": "0x45ad1fec"
    },
    {
      "constant": false,
      "inputs": [
        {
          "name": "_data",
          "type": "uint256"
        }
      ],
      "name": "saveSenderPayable",
      "outputs": [],
      "payable": true,
      "stateMutability": "payable",
      "type": "function",
      "signature": "0xbc14bb4f"
    }
  ],
  "bytecode": "0x608060405234801561001057600080fd5b5061023d806100206000396000f3fe608060405260043610610062576000357c0100000000000000000000000000000000000000000000000000000000900463ffffffff168063177b1ef5146100675780633fa4f245146100be57806345ad1fec146100e9578063bc14bb4f14610124575b600080fd5b34801561007357600080fd5b5061007c610152565b604051808273ffffffffffffffffffffffffffffffffffffffff1673ffffffffffffffffffffffffffffffffffffffff16815260200191505060405180910390f35b3480156100ca57600080fd5b506100d3610177565b6040518082815260200191505060405180910390f35b3480156100f557600080fd5b506101226004803603602081101561010c57600080fd5b810190808035906020019092919050505061017d565b005b6101506004803603602081101561013a57600080fd5b81019080803590602001909291905050506101c7565b005b6000809054906101000a900473ffffffffffffffffffffffffffffffffffffffff1681565b60015481565b336000806101000a81548173ffffffffffffffffffffffffffffffffffffffff021916908373ffffffffffffffffffffffffffffffffffffffff1602179055508060018190555050565b336000806101000a81548173ffffffffffffffffffffffffffffffffffffffff021916908373ffffffffffffffffffffffffffffffffffffffff160217905550806001819055505056fea165627a7a72305820e5d40db9f087d419e239939adf7a5d3c8cf2296780f6535d3559c715f552cd4d0029",
  "source": "pragma solidity ^0.5.0;\n\ncontract SimpleStorage {\n  address public lastUpdatedBy;\n  uint256 public value;\n\n  function saveSender(uint256  _value) public {\n    lastUpdatedBy = msg.sender;\n    value = _value;  \n  }\n\n  function saveSenderPayable(uint256  _data) public payable {\n    lastUpdatedBy = msg.sender;\n    value = _data;  \n  }\n\n}\n",
  "sourcePath": "/Users/mattlovan/Projects/servesa/kurata/contracts/SimpleStorage.sol",
  "compiler": {
    "name": "solc",
    "version": "0.5.0+commit.1d4f565a.Emscripten.clang"
  },
  "schemaVersion": "3.0.1",
  "updatedAt": "2019-03-01T17:42:29.467Z",
  "devdoc": {
    "methods": {}
  },
  "userdoc": {
    "methods": {}
  }
}